:020000040800F2
:10000000001000200D200308D5150308D71503089C
:10001000D9150308DB150308DD150308CD460308D1
:10002000000000000000000000000000DF150308D1
:10003000E115030800000000E3150308E5150308B7
:10004000D1460308D5460308E9150308D946030835
:10005000DD460308E1460308E5460308E9460308D0
:10006000ED460308EF150308F1460308F5460308BB
:10007000F9460308FD46030801470308054703083E
:10008000094703080D4703081147030815470308EC
:10009000194703081D47030821470308254703089C
:1000A000294703082D47030831470308354703084C
:1000B000394703080F160308151603083D470308C0
:1000C0004147030845470308494703084D470308CC
:1000D0005147030855470308594703085D4703087C
:1000E0006147030865470308694703086D4703082C
:1000F00071470308754703081B160308794703086F
:100100007D4703088147030885470308894703089B
:100110008D4703089147030895470308994703084B
:100120009D470308A1470308A5470308A9470308FB
:10013000AD47030845160308B1470308B547030850
:10014000B9470308A516030821160308BD4703088D
:10015000C1470308C5470308C9470308CD4703083B
:1001600038B5040001D1012032BD04F1840568686E
:1001700018B900F022F800F025F800F00DF808B1E9
:1001800000F039F800F034F8012804D000F00DF840
:1001900021F02A011EE032BD242068602068016839
:1001A000490849000160A06A70472068416821F44D
:1001B0009041416020688168704700212970204685
:1001C00000F0B8BAE86B10B9DFF84412E963E96BE4
:1001D00020460847816000F004F8BDE8324000F096
:1001E0005DBC2068016841F0010101602046704754
:1001F000204600F0CDBA204600F0EDBB38B5040033
:1002000001D1012032BD04F18405242068602068FA
:10021000016849084900016022680020002110603F
:100220002368596021688860286C10B9DFF8E411F0
:100230002964296C204688470020E8600021696015
:10024000A860E1662067297032BD284600F06DBCC9
:1002500010B5034603F15404606B20283BD109B16B
:10026000100001D1012010BD19652280628000209C
:1002700060620021E1632120606321699868B1F127
:10028000005F14D1B0F5805F04BF1869002819BF62
:10029000DFF894046062DFF89414616200F012FDEC
:1002A00041F4000100F005FDF8D1002010BDB0F5CB
:1002B000805F04BF1869002807BFDFF8741461620B
:1002C000DFF8B804606200F0F8FC41F0800100F053
:1002D000EDF9F8D1E9E7022010BD38B50346D3F8AF
:1002E0008C0020280AD109B1100001D1012032BDB3
:1002F00000F065F8BDE8384000F05FBC022032BD78
:1003000038B5044604F15405686B1346202854D1CF
:10031000002945D0100043D021652A806A80002042
:10032000E86321216963A86A00283BD0DFF85014F4
:100330000166A96ADFF84C044866A96ADFF8480438
:100340008866A96A00F0C6FC02BF20690028530035
:10035000A86A9BB290F850100A0616D5406F002884
:100360001CBF0068002817D08360A96A206D4A6FFF
:100370001368D8602068AA6A00F12801506F0368EA
:100380001961A86A01F010F805E0216801F128025E
:10039000216D01F074F928B11020E8632021696310
:1003A000012032BD21684020086200F01EF841F0B3
:1003B000800100F025F8F8D132BD022032BD0020C6
:1003C000D8661868DFF8C443A0420CD04068040225
:1003D00009D5186850E8004F054644F0806445E8A8
:1003E00000400028F5D118467047206800F1080148
:1003F00051E8001F00F108037047DFF8B005014025
:1004000043E8001000287047286881684806704754
:1004100057EB000897EC00082DE9F04105462A68E3
:10042000D36940F60F0610460768D2F8088005F138
:100430005C0407F0200003F0200133420ED10029B4
:1004400014D018B95FEAC80040F18780A16900297B
:1004500000F028812846BDE8F0410847DFF818C9B8
:1004600018EA0C0F04BFDFF81469374275D0DE07B5
:1004700009D5FE0507D54FF0010EC2F820E0626BEA
:1004800042F0010262639A0748BF5FEAC87206D56C
:100490002E6802223262626B42F0040262635A07E3
:1004A00048BF5FEAC87206D52E6804223262626BCA
:1004B00042F0020262631A070DD5002808BF18EA4D
:1004C0000C0F08D0D5F800C00822CCF82020626BB1
:1004D00042F0080262631A0509D57B0107D52F682F
:1004E0004FF400623A62626B42F020026263626B18
:1004F000002A31D039B110B95FEAC80003D5A1692B
:1005000009B128468847606B29688A68510602D479
:1005100010F0280F1BD000F0D7F8FFF775FF11D5AA
:1005200000F0D5F8FCD1606A60B1DFF85418C166FC
:10053000606A01F01CF900280ED0606AC16EBDE847
:10054000F04108472846A26CBDE8F0411047A16C75
:100550002846884700206063A4E0206901286ED106
:10056000D8066CD5F9066AD510201062296888680B
:1005700041062BD5616A0868806C80B20028EBD0F8
:1005800022889042E8DA6080086D812816D000F059
:1005900091F8FCD100F0BBF8FCD100F0ABF8FCD135
:1005A000202020630021216100F09FF821F010013C
:1005B00000F07CF8F8D1606A01F098F802206061E0
:1005C00021886088091A89B2284634E02088618829
:1005D000411A608800281CBF88B2002862D02A46D1
:1005E000106850E8003F054623F4907345E800305A
:1005F0000028F5D1106800F1080353E8003F00F12E
:100600000808DFF8A403034048E800300028F1D1CF
:100610002020206300232361A361136853E8003F77
:10062000156823F0100345E800300028F5D10220BA
:10063000606189B21046226EBDE8F041104718068D
:100640000AD5390658BF5FEA082005D5E16949B3E4
:100650002846BDE8F0410847580611D579060FD560
:1006600000F043F821F0400100F020F8F8D12020FC
:10067000E0620021E1612846E26BBDE8F0411047ED
:10068000180206D5790004D52846E26DBDE8F04190
:100690001047D80148BF002F04D52846A26DBDE8F9
:1006A000F0411047BDE8F08141F4807142E800104C
:1006B00000287047296851E8001F2A6821F48071DA
:1006C00042E8001000287047284600F02BBB29683C
:1006D00001F1080252E8001F286800F1080321F028
:1006E000400143E8001000287047286850E8001FC8
:1006F00002467047286800F1080151E8001F00F128
:10070000080321F0400143E80010002870472868E2
:1007100000F1080151E8001F00F1080349084900F1
:1007200043E8001000287047D10E00082D0F000884
:10073000790E0008DFF8901940F8941FDFF88C2933
:100740004260DFF88C19DFF88C29C1600261DFF8A4
:100750008819DFF8882941618261DFF88419DFF8A0
:100760008429C1610262DFF88039DFF88019DFF87F
:100770008029836041628262704700004F0E00084A
:100780009F0D0008DD0D0008ED0D00080024004657
:10079000F8B504462268DFF85C0900251368A168F3
:1007A000034020690B4361690343E0690B43034342
:1007B00013605168E06821F4405101435160DFF853
:1007C000E419A3698A421CBF206A03439668DFF8D4
:1007D000D809DFF8D8E9064033439360D36A606AEA
:1007E00073A61B0940EA0313DFF8C409DFF8C479D4
:1007F000D3624FF4004372453AD13F6807F00307D4
:10080000032F5AD8DFE807F0025350564FF0010C7F
:10081000E1694FF6F077B1F5004F40F09080BCF100
:10082000000F0FD0BCF1010F00F08180BCF1040F6C
:100830000CD0BCF1080F00F07D80BCF1100F00F06F
:100840007C80A5E001F0B2FB002810D000F0BCF8DD
:100850004A0802EB4002B2FBF1F0A0F11001B942EC
:10086000EFD20740C0F3420007432068C76090E022
:10087000DFF8F0C962450CD13F6817F00C0706D0CD
:10088000042F14D0082F0FD00C2F13D015E0AC4636
:10089000BEE78A4211D1BF6807F00307032F0CD8C7
:1008A000DFE807F01C0502084FF0040C07E04FF0EA
:1008B000080C04E04FF0100C01E04FF0200C8A42CD
:1008C000A6D1BCF1020F09D0BCF1040F0AD0BCF1D3
:1008D000080F15D0BCF1100F15D059E001F074FBD2
:1008E000002856D0616A36F81120B0FBF2F6626833
:1008F00002EB42018E424BD31303B34205D247E0D1
:1009000001F035FBECE71846ECE75008002110EB4E
:100910000620DFF8EC7951EB1661002301F0D4FBDF
:10092000A0F54076BE4233D22168C86031E001F0C4
:1009300042FB89E701F01BFB86E7184686E7BCF11E
:10094000000F0CD0BCF1010F1AD0BCF1040F09D07C
:10095000BCF1080F17D0BCF1100F17D018E001F050
:1009600025FBB0B100F030F800EB5100B0FBF1F026
:10097000A0F11001B9420BD2226880B2D06008E029
:1009800001F019FBEDE701F0F2FAEAE71846E9E7B2
:10099000012504F168000121002341800180C3602A
:1009A00003612846F2BD0000FEFFFFEFFEFF7FEF70
:1009B000010002000400060008000A000C001000FC
:1009C0002000400080000001626A616836F8123041
:1009D000B0FBF3F0704790F828100A0706D50268BC
:1009E0005368816B23F400430B43536090F8281045
:1009F000CA0706D502685368C16A23F400330B4363
:100A0000536090F828108A0706D502685368016B76
:100A100023F480330B43536090F828104A0706D51F
:100A200002685368416B23F480230B43536090F8B2
:100A30002810CA0606D502689368C16B23F4805358
:100A40000B43936090F828108A0606D502689368D5
:100A5000016C23F400530B43936090F828104A066E
:100A600010D502685368416C23F480130B43536024
:100A7000436CB3F5801F05D15368816C23F4C00328
:100A80000B43536090F828100A0606D501684A689F
:100A9000C06C22F4002202434A607047F8B5054654
:100AA00005F184040020E06001F026FC0646286879
:100AB0006FF07E4701680A0711D500973346002280
:100AC0004FF40011FFF7C1FB48B1FFF70EFE21F014
:100AD0008001FFF7EBFDF8D12020606017E0286867
:100AE00001684A0717D50097334600224FF480016A
:100AF000FFF7ABFB78B1FFF7F8FD21F49071FFF73A
:100B0000D5FDF8D1FFF703FEFCD12020A060002125
:100B100021700320F2BD202060602021A160002010
:100B2000E866002129672070F2BD2DE9F0410546F5
:100B30000E4690461F46069C2868C1693140B14266
:100B40000CBF01200020404535D114F1010FF3D036
:100B500001F0D2FBC01B844200D314B90320BDE8CE
:100B6000F081286801684A07E6D5802E18BF402E1C
:100B7000E2D0C169080704D42968C8690105DBD53A
:100B80000CE02A6808201062FFF79EFD05F1840042
:100B90000821C160002202700120E0E729684FF4BB
:100BA00000600862FFF790FD05F184002021C1601C
:100BB00000220270D2E70020D1E750B503469965C4
:100BC00003F15C010A804A80002088619868FF2454
:100BD000B0F5805F04D1186990B940F2FF140FE0BE
:100BE00018B9186960B17F2007E0B0F1805F06D1C5
:100BF000186908B97F2403E03F20888001E00024C1
:100C00008C800020486322240C63186800F10804DB
:100C100054E8004F00F1080644F0010446E80040A3
:100C20000028F2D18868B0F1005F20D18889824223
:100C30001DD39A68B2F5805F04BF1869002803D1FC
:100C40000FF281528A6109E00FF2B9448C61186990
:100C500020B100F032F8FFF727FDFAD100F032F8AA
:100C600041F0805100F025F8F8D1002050BD98687F
:100C7000B0F5805F04BF186900280CD10FF265320F
:100C80008A61186850E8001F024641F02001FFF712
:100C90000DFDF6D1E9E70FF2FD228A6118690028FF
:100CA000EFD000F00AF841F49071FFF7FFFCF8D1A3
:100CB000DBE744E8001000287047196851E8001F7E
:100CC0001A687047186800F1080151E8001F00F128
:100CD000080470470020C866A068B0F5805F7047C0
:100CE00010B500F008F8FCD100F00FF8FCD120217D
:100CF000C0F8881010BD016851E8002F0B4622F0A3
:100D0000C00243E8002100297047016801F1080290
:100D100052E8002F01F1080422F4000244E8002107
:100D20000029704710B500F00EF8FCD100F015F85E
:100D3000FCD1C16E00F026F82021C0F88C100022F2
:100D4000C266426710BD016851E8002F0B4622F4CD
:100D5000907243E8002100297047016801F1080200
:100D600052E8002F01F10804DFF82C160A4044E88D
:100D7000002100297047000001000010200100043C
:100D80003B0E0008012909D1026852E8002F0368D0
:100D900022F0100243E800210029F5D1704710B578
:100DA0000146C86D096D812913D00022A0F8562094
:100DB000016801F1080252E8002F01F1080422F055
:100DC000800244E800210029F2D100F0A5F8FCD10E
:100DD00010BDD0F89810BDE810400847C06DD0F89D
:100DE00094100847516CBDE834400847F8B5C46D0D
:100DF00004F1880528686E68216804F156078A683E
:100E0000110606D5212804D1002038802046FFF79E
:100E100067FF21688868410606D5222E04D100208C
:100E200038812046FFF77EFFA86840F01000A860D8
:100E30002046E969BDE8F4400847C06D0022002360
:100E400000F156010A810B80D0F8A4100847D0F8B1
:100E5000881021290FD1B0F8561001B923E0016D97
:100E600003680A789A62016D4A1C0265B0F8561050
:100E70004A1EA0F856207047D0F88810212911D1B9
:100E8000B0F8561001B90EE0016D03680A88C2F38C
:100E900008029A62016D8A1C0265B0F856104A1E5B
:100EA000A0F856207047026852E8002F036822F02D
:100EB000800243E800210029F5D1016851E8002FA4
:100EC0000B4642F0400243E800210029F5D170476B
:100ED000D0F88810212900D0704730B500F15602B3
:100EE000938A0DE00168CC69250608D5046D257844
:100EF0008D62016D4C1C04651588691E11805B1E96
:100F000099B241B111880029ECD100F035F8FCD13B
:100F100000F002F8FCD130BD016851E8002F0B460B
:100F200042F0400243E8002100297047D0F88810C1
:100F3000212900D0704730B500F15602938A0FE0A6
:100F40000168CC6925060AD5046D2588C5F3080516
:100F50008D62016D8C1C04651588691E11805B1EF5
:100F600099B241B111880029EAD100F005F8FCD10D
:100F7000FFF7D2FFFCD130BD026802F1080151E851
:100F8000002F036803F1080422F4000244E8002162
:100F90000029704738B500F04DF81ED14B6A918892
:100FA000846D0B402370816D4B1C00F049F818D103
:100FB00000F04DF800F060F8FCD100F06AF80BD1B9
:100FC0000023136100F04EF8FCD10168CB69DC0608
:100FD00044BF10230B628FE004E7886940F00800EB
:100FE000886131BD38B500F025F81ED14B6A918873
:100FF000846D0B402380816D8B1C00F021F818D18B
:1010000000F025F800F038F8FCD100F042F80BD1E0
:101010000023136100F026F8FCD10168CB69DC06DF
:1010200044BF10230B6267E0DCE6886940F00800EB
:10103000886131BD00F15C020168136B222B70479F
:10104000836551884B1E538051880029704703687F
:1010500053E8003F046823F4907344E8003100290A
:10106000F5D17047016851E8003F0C4623F01003AA
:1010700044E8003100297047016801F1080353E892
:10108000003F01F108055B085B0045E800310029DD
:101090007047202111630023936100215161016891
:1010A000404B99420CD049680B0209D5016851E8C0
:1010B000003F0C4623F0806344E800310029F5D15D
:1010C0001169012970470000A3A10008F79E0008DC
:1010D000DBA100085FA40008A7A60008CBA60008B3
:1010E00093A8000823B10008FFA10008F7BE00087C
:1010F00047AB0008F369FFCF1188126EBDE8384096
:10110000104700002DE9F84300F0B4F845D1A0895C
:1011100080B96088002842D0A18988423FDA00F077
:10112000F1F89E48A06100F0D3F8FCD137E0616C83
:1011300030468847A806ECD500F096F80870B06DE8
:10114000421C00F0F5F812D0E90748BF5FEAC95227
:1011500000F09EF803D5F90701D500F0E1F800F0A2
:10116000A0F820B1A16C30468847002060636088F9
:101170000028DFD100F0A2F8FCD100F0B3F8FCD1D8
:1011800000F0EFF8D3D100F0DCF844BF1021016289
:101190002188226E30469047CCE700F00DF8BDE87C
:1011A000F183000000240046FFF4FF1100380140E5
:1011B0000024F400E00C0246816941F008018161DD
:1011C000704700002DE9F84300F054F845D1A0899C
:1011D00080B96088002842D0A18988423FDA00F0B7
:1011E00091F86F48A06100F073F8FCD137E0616CB2
:1011F00030468847A806ECD500F036F80880B06D78
:10120000821C00F095F812D0E90748BF5FEAC95286
:1012100000F03EF803D5F90701D500F081F800F0A1
:1012200040F820B1A16C3046884700206063608898
:101230000028DFD100F042F8FCD100F053F8FCD1D7
:1012400000F08FF8D3D100F07CF844BF1021016288
:101250002188226E30469047CCE7FFF7ADFFBDE80E
:10126000F1830000004400403168486AB16D08EA2B
:10127000000070470646306806F15C04B4F804804C
:10128000C5690146D1F800908768216B2229704713
:1012900005D501210162606B40F001006063A80781
:1012A0007047680708D5F90706D532680420106230
:1012B000606B40F002006063606B7047316851E81A
:1012C000001F326821F4807142E800100028704746
:1012D000316851E8001F326841F0200142E80010F7
:1012E00000287047306800F1080151E8001F00F144
:1012F00008032948014043E8001000287047000017
:1013000000FD0F00306800F1080252E8001F00F1F4
:10131000080821F0805148E800100028F2D17047F9
:10132000326802201062606B40F004006063704716
:10133000B2656088411E61803068C56915F0070F8D
:10134000704700212161306850E8001F024621F0FB
:10135000100142E800100028F5D13068C169CA06C2
:101360007047202020630021A16100206061306867
:101370000C4988420CD04068010209D5306850E819
:10138000001F024621F0806142E800100028F5D1DC
:101390002069012870470000FEFFFFEF950F00084D
:1013A000E50F00080024004638B504001EBF04F114
:1013B0004C05A86A002833D0297A2268526901298D
:1013C00003D0022928D1D10326D52A7A012A22D195
:1013D0002978012901D1022032BD00F023F80161F2
:1013E0002068416941F4BA414161A86920B120688F
:1013F000416941F400714161686A20B12068416926
:1014000041F400514161A86A00226946006800F079
:101410002BF800F012F820E04020E860002129704D
:10142000012032BD0121297002222A720223037396
:101430000020E860A86A00217047A86A2268016855
:10144000090C09041160A86A4FF6FC712268036850
:1014500000980B400343D36770472068416941F00F
:1014600001014161002032BD09B1034808600AB1A1
:101470000520106070470000000001F82DE9F84FCA
:10148000044600F039FF0646BCB104F14C050020CB
:101490002870022129722068416941F006014161EA
:1014A00022685069C1070AD500F026FF801B062874
:1014B000F6D31020E86003212972012075E0204650
:1014C0005369016ADFF8E89023F443030B43536147
:1014D0004369C169026906680B4381691343354A50
:1014E0000B43354CDFF8D4A0DFF8D4B0DFF8D4C01C
:1014F000DFF8D4E0DFF8D4804E4518BF46450BD066
:10150000764518BF664507D05E4518BF564503D0DF
:10151000A64218BF96420DD1876AC16A7F1E3F0559
:101520000B43416A07F07C773B43491E090101F4F4
:101530007C710B43316C01F080210B4333640679DD
:101540008368016B06F03F0633430B43C168B1F576
:10155000806F13D10168494518BF41450BD07145D3
:1015600018BF614507D0594518BF514503D0A14266
:1015700018BF914207D143F4806304E0B1F5007FC6
:1015800008BF43F4007302681149546C0C402343B4
:1015900053640368002200219A640268D167406B9B
:1015A0006860E960012028720020BDE8F28F000029
:1015B00050000240D003024050030240D0020240DB
:1015C00050020240D001024050010240D0000240CF
:1015D000C031E03C70B5044600F08EFE0646ACB16A
:1015E00020684169050B2D0341F006014161206827
:1015F0004169C8070CD500F07FFE801B0628F6D392
:1016000004F14C001021C16003220272012070BD60
:10161000216800200022086023685A61216808645C
:101620002068002142642268002091642168002221
:10163000C8642068002102652268D1676868226852
:101640000121503AD20902F01F029140884368609C
:1016500021684FF4FE400022C86004F14C010020D4
:101660004861C861486208698A610A628A6200B199
:101670000A6100204860CA6008720A7070BD70B5C7
:1016800004002AD004F14C052878012801D1022059
:1016900070BD012028702E7A012E1AD102202872E6
:1016A0000026EE60204600F053F92068416941F4BD
:1016B000BA414161A86920B12068416941F40071D3
:1016C0004161686A20B12068416941F4005141617B
:1016D00005E04020E86000212970012070BD2068ED
:1016E000416941F001014161002070BD70B50446BF
:1016F00000F002FE06462CB304F14C05287A0228BD
:1017000002D02021E9601BE02068416941F004011A
:10171000416105202872206801698A0414D400F010
:10172000EBFD801B0628F6D3E868032140F010008B
:10173000E86029722879010602D5A96A0120087398
:1017400000202870012070BD416941F00201416113
:101750000420287222684FF4FE410120D1602872D3
:101760002979080600F0C8F80020287070BD30B153
:1017700000F154010A78022A03D020204860012099
:10178000704704220A700068416941F4005141F039
:10179000040141610020704738B504462068010B00
:1017A0000903C968A0F15002D20902F01F02D1401A
:1017B000C90740F1A080016904F14C054A0509D52B
:1017C00041694A0506D54FF48061C160E86840F080
:1017D0000100E860206801690A0509D541690A0528
:1017E00006D54FF40061C160E86840F00200E8608F
:1017F00020680169CA0409D54169CA0406D54FF4B5
:101800008051C160E86840F00400E8602068016928
:101810004A0409D541694A0406D54FF48041C160A4
:10182000E86840F00800E860206801698A0509D589
:1018300041698A0506D54FF40071C160A96909B1F3
:1018400020468847206801698A0420D541698A04B6
:101850001DD54FF40051C160287A042811D12068A9
:10186000416921F40051416100F04EF800F044F864
:10187000296A0020287000293DD02046BDE8344068
:10188000084705202872696A09B1204688472168FF
:101890000869C2051FD54869C2051CD5287902060A
:1018A0000BD5C86F002804BF886C002809D101211E
:1018B0002972A96A0120087303E0886C08B9012124
:1018C000297221684FF440700022C86069692A704B
:1018D00009B120468847E86868B100F015F802D5DC
:1018E000A86A0121017300212970E96919B1204614
:1018F000BDE83440084731BD05D5A86A0121017310
:1019000022680021916470472068416941F002011A
:1019100041610120287229790806704708B9012021
:10192000704702680123100B503AD20902F01F02DF
:10193000000303FA02F2CB0608D501F011011129C8
:1019400041680CBF0A4321EA02024260002070474E
:1019500010B50068846C63F30F0484644FF4FE4395
:10196000C360C164026510BD2DE9F84F040044D086
:10197000DFF80477D7F81C90D7F828A0207809F072
:101980000C090AF00305C1072AD5B9F1080F04D0E4
:10199000B9F10C0F08BF032D62D1606800282CD06C
:1019A000B9F1080F1CD13968A068012221F488110F
:1019B000014341F4803139603868DFF8DC16DFF824
:1019C000D436000D00F001008240B1FBF2F1DFF8E7
:1019D000C0261160186800F095FC002840F0E981ED
:1019E0002078810712D5B9F1000F04D0B9F10C0F9E
:1019F00008BF022D57D12069002800F0DA8138692C
:101A0000616920F4F81040EA014038612078DFF87D
:101A10008C86DFF88C56010740F1C08028684FF0B3
:101A2000000A41070AD428684FF0010A40F0040078
:101A30002860296801F0040100910098D8F800108E
:101A4000C80751D400F0DDF90646D8F80000C107F8
:101A50004AD400F051FC801B0328F6D303207FE119
:101A6000606888B13A68A16822F48812104308437C
:101A700000F0C4F9064638688103B1D400F03CFC9C
:101A8000801B6528F7D3E9E7386820F4881000F058
:101A9000B5F9064638688103A2D500F02DFC801BFD
:101AA0006528F7D3DAE7206978B1396841F48071A5
:101AB000396000F021FC0546386841059FD400F0EC
:101AC0001BFC401B0328F7D3C8E7386820F480705C
:101AD00000F094F905463868410597D500F00CFCF4
:101AE000401B0328F7D3B9E7EE6DA069002843D067
:101AF00040011AD5E16906F08050814211D03101D0
:101B00000FD526F08066EE6500F0F6FB8346E86DA3
:101B1000010106D500F0F0FBA0EB0B001528F6D371
:101B20009CE7E16926F080560E43A0690643EE6506
:101B300000F0E2FB0090B346A669E86D10EA460F9C
:101B400006D100F0D9FB0099401A1528F4D385E797
:101B500086F010562BEA060BC5F85CB000F0CCFB03
:101B60008346E86D10EA460F16D000F0C5FBA0EBE7
:101B70000B001528F5D371E726F01056EE6500F03E
:101B8000BBFB0646E86D10F0904F05D000F0B4FBAB
:101B9000801B1528F6D361E700F028F92178480763
:101BA0006CD529684FF0000A48070AD429684FF01D
:101BB000010A41F004012960286800F00400009047
:101BC0000098D8F80010C8070CD400F01AF906469F
:101BD000D8F80000C10705D400F08EFB801B032855
:101BE000F6D33BE7E06841F2893828B3E96D21F08C
:101BF00080010843E86500F07FFB0646E86D810739
:101C000005D400F079FB801B4045F7D326E7207B05
:101C1000010608D5E86D01052ED400F06DFB801B90
:101C20004045F7D31AE7E86D010525D500F064FBC0
:101C3000801B4045F7D311E7E86D20F08100E8658F
:101C4000E86D20F00400E86500F056FB0646E86DFC
:101C5000810705D500F050FB801B4045F7D3FDE61A
:101C6000E86D010608D5E86D010505D500F044FBD7
:101C7000801B4045F7D3F1E600F0B8F8206A002851
:101C80006DD0B9F10C0F6DD00228386820F080704B
:101C9000386053D100F030FB0546D7F800A000F0C3
:101CA0002BFB401B0328E6D25FEA8A10F5D4626A58
:101CB000032A07D14FEA1A51DFF8DC0301F00101D2
:101CC000C84001E0DFF8C403A36ADFF8D813B0FB13
:101CD000F3F088422CBF0C210021D7F82890DFF8C0
:101CE000C8035B1E00EA09000243114341EA0321D5
:101CF00041F48021B962E06A216B401E491E40EA2E
:101D00004120616B491E40EA0140A16B491E40EA37
:101D100001607863E06B10B100F062F8B862386877
:101D200040F0807000F06AF804463868810116D4EB
:101D300000F0E2FA001B0328F7D38FE600F0DCFA8C
:101D400004463868810105D500F0D6FA001B032847
:101D5000F7D383E6B86ADFF854130840B86200206E
:101D6000BDE8F28F012824D0B86A796B636A00F06D
:101D700003029A4201BFC0F30220A26A521E90429F
:101D800017D1E26AC1F30800521E904201BFC1F3AD
:101D90004620226B521E90420BD1626BC1F306406B
:101DA000521E904201BFC1F30660A16B491E8842DA
:101DB00001D00120D4E7B86BE16BC0F3CC008142C5
:101DC000CDD0B86A20F01000B86200F095FA054650
:101DD00000F092FA401BFBD0E06B00F001F8BDE789
:101DE000C000B863B86A40F010007047BAF1000F45
:101DF00003D0286820F0040028607047386000F0A5
:101E00007BBAD8F8001041F00101C8F8001000F0CA
:101E100073BA2DE9F0410400884637D0DFF89062AC
:101E2000306800F00F00404509D23168090948EADE
:101E300001113160306800F00F00404526D1217853
:101E4000880609D5DFF840221368A169E06923F00C
:101E500017030B43034313602178DFF81C52C807B4
:101E600042D52868616803290CD180016BD5E969E6
:101E700001F00C010C290CD0A96A012060F3155166
:101E8000A96206E0022902D1800302D45BE0410589
:101E900059D5EA696068920840EA8202EA6100F076
:101EA0002BFA07466068E96901F00C01B1EB800F7D
:101EB00008D000F021FAC01B41F289318842F1D3E9
:101EC000032052E003280FD1A86A20F48010A862F2
:101ED00000F012FA0746A86A410205D400F00CFA95
:101EE000C01B0B28F7D3EBE7296A22680020930771
:101EF00004D5A068C90840EAC1010120530704D5F0
:101F0000E06821F0700101430120120705D5206926
:101F100021F4E06141EA001100E000B1296220787B
:101F2000C10644BF60696862316801F00F018845ED
:101F30000BD23068000948EA00103060316801F0C7
:101F40000F01414501D001200FE000F010F82A6A8E
:101F500058494F4B02F00702895CC84018604D4851
:101F60000068BDE8F04100F0CDB9BDE8F08142491C
:101F7000C86910F00C0001D144487047082818BF08
:101F800000F036B809684448090D01F00101C84065
:101F9000704780B5FFF7EBFF47490968454A3C4B5E
:101FA00001F00701515CC840186002BD80B5FFF721
:101FB000F0FF414A0CE080B5FFF7EBFF3E4A1368A3
:101FC0003E49C3F3022207E080B5FFF7E2FF3C4A37
:101FD00013683A49C3F30212895CC84002BD10EE8F
:101FE000100A491CB0FBF1F010BD3648046807E048
:101FF00010B5FFF7FAFFBCEEC00AC4F30661EEE7C6
:102000001D48416BC1F30801491C00EE101A816A9A
:10201000B8EE400AC1F30222521C00EE902AF8EEFC
:10202000600ACA0643BF826BC2F3CC0201EE102ADB
:102030009FED121A01F00301B8EE411A022902D0F5
:10204000032903D00DE0DFED0E1A0CE00068124901
:10205000000D00F00100C14001EE901AF8EE611A87
:1020600001E0DFED061AC1EEA00ADFED061A01EE6F
:10207000210A20EE800A7047000C02460000000092
:102080000024744B00000039000E02460024F400C6
:1020900034490020D84800200048E80128080246BA
:1020A000940C024601127A00E0F8FFFFFCFFF8FFF3
:1020B000002002403CAB0008200C0246A845030863
:1020C000240C0246340C0246BBBBE1B1B2F5803FA2
:1020D00080F07E80022A1ED98C46B1FBF2F102FB11
:1020E00011C31B0443EA1043B3FBF2FC02FB1C3395
:1020F00080B240EA0343B3FBF2F002FB103240EA45
:102100000C4000237047022A05D98446B0FBF2F048
:1021100002FB10C270474AB105D100F00102490824
:102120005FEA3000704700220023704700F034B9A6
:102130000B000200002100207047904271EB030C5D
:10214000F6D3B3F5803F2FD2F0B5B3FA83F7B1FAE7
:1021500081F4A7F10F0E3D1B5340CEF1200602FA89
:102160000EF2F3415340B5F10F0746D80F3C2C4413
:102170004140C4F12006A040F1414140B1FBF3F6DB
:1021800003FB1611A2FB0645001BA94102D2761ED5
:102190008018594180EA010221FA0EF362FA0EF228
:1021A00000215A403046F0BD30B4B1FBF3FC03FBD4
:1021B0001C11A2FB0C45001BA94103D2ACF1010C80
:1021C0008018594130BC02460B46604600217047DA
:1021D000B2F1807F65D3F0B5B2FA82F7B1FA81F43B
:1021E000C7F10F063D1B22FA06F307F1110EF2416B
:1021F00020355A40B5F10F07B8D94140C4F1200647
:10220000A040F1414140B1FBF3FC03FB1C11A2FBD8
:102210000C45001BA94103D2BCF1010C80185941A7
:102220000F2F12D30F3FC90341EA5041B1FBF3F620
:1022300003FB1611A2FB0645D4EBC030A94102D224
:10224000761E8018594146EACC3C07B34140C7F19D
:102250002006B840F1414140B1FBF3F603FB1611F3
:10226000A2FB0645001BA94102D2761E80185941E7
:1022700080EA010221FA0EF3C7F1200462FA0EF29D
:102280000CFA07F05A402CFA04F13043F0BD80EA12
:10229000010221FA0EF3002162FA0EF260465A4062
:1022A000F0BD8C46B1FBF2F102FB11C31B0243EA05
:1022B0001063B3FBF2FC02FB1C331B024CEA002050
:1022C00043EA1063B3FBF2FC02FB1C331B024CEA33
:1022D000002043EA1063B3FBF2FC02FB1C331B0239
:1022E0004CEA002043EA1063B3FBF2FC02FB1C3211
:1022F0004CEA00200023704701484068704700BF47
:10230000D0480020F8B504461F4D28780021002849
:102310002ED01E4A12681E4B1E68770702D54FF456
:102320007A710DE01B4B1B6813F4400306D0B3F524
:10233000800F08D0B3F5000F0ED015E04FF4FA511E
:10234000B1FBF0F00EE04FF47A72B2FBF0F24FF412
:10235000FA43B3FBF2F107E04FF47A71B1FBF0F00E
:102360004FF40042B2FBF0F1084600F071F808B1FA
:102370000120F2BD002221464FF0FF3000F027F887
:10238000AC600020F2BD00BFD048002034490020DE
:1023900010E000E0E00C024670478268521C826048
:1023A000426832B10268531C036011704168491ED3
:1023B00041607047474B19684FF6FF020002114019
:1023C00000F4E0600843444908431860704770B562
:1023D000404B1C68C4F302230124C3F10705052DFB
:1023E0002EBF0F2504FA05F56D1E1E1D072E34BFE6
:1023F0000023DB1E2940994004FA03F35B1E1A40B8
:1024000011430901020002D43448815470BD344B99
:1024100002F00F021A4402F8041C70BD010007D438
:10242000012200F01F018A402E4B400943F8202072
:10243000704701000BD4012200F01F018A402A4B93
:10244000400943F82020BFF34F8FBFF36F8F7047D1
:10245000401EB0F1807F07D22449486000228A6084
:102460000B6843F003030B60B0F1807F8041C043F1
:10247000C00F7047010007D4012200F01F018A40FD
:102480001B4B400943F82020704700001949174AA8
:1024900004281ED8DFE800F00811141D030010689E
:1024A00040F0040010607047136823F004031360C9
:1024B000086820F44000086070471368012001E0BC
:1024C0001368022023F0040313600A6860F3975234
:1024D0000A6070470CED00E00000FA0500E400E03F
:1024E00018ED00E000E100E080E100E010E000E035
:1024F00000E200E0E00C02467CB50FF26902002128
:102500004FF4003001F0A2F80FF2E95200214FF42D
:10251000802001F09BF80024DFF8485C64206043D1
:102520003221641C2E18304601F006F9322106F5DE
:10253000FA6001F001F9142CF0DB0020A5F8A00FDF
:10254000DFF8244C04F1140001F0F9F800200090A9
:102550000FF6F5330022642104F1340001F04CF948
:1025600073BD00002DE9F84FADF5327DDFF8FC6B4F
:102570003078DFF8F45B4FF48D6ADFF8F47B50B10C
:10258000022802D0C0F012821DE23279711D284665
:1025900001F04CFA17E2748841F20D2EB17A727A8A
:1025A0007079B379DFF8CC8BDFF8CC9B744505D01C
:1025B0004CF2E967BC4200F0B78004E201908DF86C
:1025C0000130F379DFF8B4BB8DF80030F37A307B5B
:1025D0001B0443EA0063019843EA012111430E46BC
:1025E000002839D0022801D024D34EE005F1140090
:1025F00000F038FB04002BD0607A0C2804BFDBF815
:10260000000001F0DCFA286AA0420BD1416805F114
:102610001402914205F1200102D101F0DAF801E043
:1026200001F0DCF8204600F00EFA0FF6C43200F09C
:10263000DFFAB1E10FF6A43200F0DAFA314605F123
:10264000140000F00FFB040002D000F057FD1CE066
:10265000334609F1880200E1E96921FA00F2D20764
:1026600007D5401C80B220280FDCF6D120234A4633
:10267000F3E0012282400AFB00F01143E9613C18BB
:10268000214605F1140001F070F89DF80100207258
:102690009DF80010DFF8EC0A6172E6609DF800100A
:1026A000DFF8E46A3768012920D0022915D00C2907
:1026B0002AD10022827242722C62384601F07FFADF
:1026C0000C220FF6543108F1010001F0AFF9C1A05E
:1026D000027808F115010A7016E001F06CFA316811
:1026E000884211D12C62DBF800000BE010218172CE
:1026F00041722C620E220FF6103108F1010001F038
:1027000095F9384601F05BFA019800280BD10121B8
:10271000002221746274287808B100F020B905F114
:10272000340001F082F84EE11CACDFF838AA0094C6
:1027300001287BD1B01D01F0B1FD804680B2642834
:10274000A8BF4FF063081FFA88F2B11D03A801F07B
:10275000AFFD002003A91FFA88F208F1030788548F
:10276000BFB2B31D711DD85DCC5DBF1C44EA00240F
:10277000642C04DB09F1C40200F03AFA6324701DF2
:10278000BFB2C11922461CA801F092FD24B90C2049
:1027900000900FF6902322E0009900208346085510
:1027A000642601E00BF1010BBAF8A01F1FFA8BF0B1
:1027B000884210D21FFA8BF7774303A90AEB070070
:1027C00001F0AEFD0028EDD10AF5FA60621C1CA9EB
:1027D000384401F06DFD641CA4B200941CAB1FFAD8
:1027E00088F203A905F1140000F053FA9AF8A07FCB
:1027F00009F5D47202213B4600F07DFC00206425DF
:1028000011E0441C68430AF5FA6200970AEB0001E4
:10281000104402910190234609F5E872022100203C
:1028200001F0ABFD2046B842EBDBB5E0002840F0FC
:10283000B680307A000440EA026040EA012105F1E6
:10284000140019430F4600F00DFA0446E06810F139
:10285000010F05D13B460FF6D8120221002090E06F
:10286000052505E0D2B204F203411CA801F078FC72
:10287000307985424CDA711D11F805B06D1CADB28E
:10288000B01D721D415D575DAD1C701D47EA0127EB
:10289000A9B201443A461CA801F00AFD00990020A3
:1028A0007D197A1CC855ADB2BBF1070FE0D8DFE83F
:1028B0000BF02B1C1814100A0605D9E7D2E7D2B288
:1028C00004F29F31D1E71CA904F5667001F0F0FC19
:1028D000CEE71CA904F29630F8E7D2B204F5D17124
:1028E000C3E71CA904F59F70F0E704F1DA07D2B240
:1028F00039461CA801F034FC3B46BCA20D2108F16E
:10290000150001F067FDB3E71CA904F11200DDE733
:102910000027642505FB07F604F112000AEB060107
:1029200001F0FEFC08B37F1C142FF3DB4BD109F53B
:10293000A27200F05DF904F1120001F0AFFCBAF8E8
:10294000A03F421C591C6B43AAF8A01F04F11201BE
:102950000AEB030001F0ACFC01202074607400213C
:102960004FF4802000F080FE2DE00AF5FA60851912
:10297000284601F093FC38B904F1120309F580727E
:10298000022101F0FAFC1EE0294604F1760001F074
:1029900043FD204600F004FB00F0B0FB13E00228EA
:1029A00011D109F5BA7200F023F90CE00024E0B26D
:1029B0000AFB00F0641C384400F045F8E0B220281F
:1029C000F5DB00212970082000F062FE0DF5337D53
:1029D000BDE8F08F000000002DE9F8438946144659
:1029E0001D4670BB4DF6F301DFF8A087894509D17C
:1029F000DFF8746730690FF2B4720221078800F0C3
:102A0000F8F817B94B46424614E070682B46224648
:102A10000088394601F00CFD48B90FF2B07202216E
:102A200001F0ABFC0220BDE8F24300F039BE0346E2
:102A300008F1380201B002210020BDE8F04301F0A6
:102A40009CBCBDE8F18338B504464FF0FF3000254B
:102A5000E06025726572642104F1120000F06CFEE2
:102A6000642104F1760000F067FE642104F1DA00CD
:102A700000F062FE642104F59F7000F05DFE4FF4EB
:102A8000FA7104F5D17000F057FE04F2963005702B
:102A90004570072104F5667001F0F2FC642104F230
:102AA0009F3000F049FE642104F2034000F044FE30
:102AB000DFF8BC064FF48D62E9B251430144A142F4
:102AC00004D06D1CEBB2202BF6DB08E0DFF8980693
:102AD000C169012202FA05F521EA0505C561204612
:102AE00000F0FCF8FF2804D02046BDE8324000F09A
:102AF00046BE31BD2DE9F04E9AB06721684601F01F
:102B0000BFFC00250FF25C794DF6F30A0FF2347B1F
:102B1000DFF85476F869E840C10760D54FF48D625C
:102B20006A43DFF84C068418217C012957D1607C68
:102B3000002834D104F10C0100F08EF8002102606D
:102B400001208DF805108DF80600622100208DF817
:102B500007108DF80800022162208DF809108DF809
:102B60000A00002103208DF80B108DF80C00F221D3
:102B700001208DF80D108DF80E00042105208DF830
:102B80000D108DF80E00062107208DF80F108DF81E
:102B900010005A4600F02CF86B4611221BE0012869
:102BA0001DD104F1120001F079FBC6B201208DF8AD
:102BB0000000721C04F112010DF1010001F078FB1C
:102BC00000200DF1010188554A46022101F0D5FB94
:102BD000F61C6B46F2B251460020FFF7FDFE6D1C5D
:102BE000202D97DB1AB0BDE8F08E000025730000A1
:102BF0000221002001F0C1BB3EB50546DFF86805A3
:102C0000046A44B3DFF88825280002D0012D04D0DF
:102C10000AE0217A0B0707D403E0207AC10603D427
:102C20002832FFF7E5FF37BD0621684601F028FC92
:102C300004F10C01022000F00FF88DF8055002603D
:102C40000FF23C62FFF7D4FF6B4606224DF6F3010C
:102C50000020FFF7C1FE37BD8DF800000A680DF1B6
:102C60000100704738B5044620680D46009001E029
:102C700000F00BF80098A04205D00146C868A842B1
:102C8000F6D1084632BD002032BD0098694600F0FA
:102C9000A0BD2DE9FC410546089C28680E46174654
:102CA0009846009015E03A463146123001F0EBFBB1
:102CB00068B90098763001F0F1FA40B900982246E0
:102CC0004146763001F0F4FA009800F069F9FFF718
:102CD000DCFF0098A842E6D1BDE8F3817CB504464C
:102CE000DFF884647069FF25009001E0FFF7CEFFF4
:102CF000009806F11401884204D06D1CA042F5D161
:102D0000E8B276BDFF2076BD2DE9FE4F0646DFF81E
:102D1000584404F11400DFF87C54DFF87C9400F090
:102D200011FD08B306220FF2745109F1010000F001
:102D30007DFE032296A109F1150000F077FE062220
:102D40000FF2605109F1290000F070FE0A220FF223
:102D50005C51681C00F06AFE06220FF25C5105F11E
:102D6000150000F063FEABE0206A10B960692062D4
:102D700007E004F11401884204BF04F1200100F0CF
:102D800028FD206A6FF0010A012E02D0022E0ED01B
:102D90001EE004F1200100F021FD206A04F114017D
:102DA000884211D104F1200100F018FD0CE004F17B
:102DB000200100F00EFD206A04F11401884204BFD6
:102DC00004F1200100F005FDC4F824A0C4F828A0F7
:102DD00000F0F1FEDFF8A4130A68266A904277D16A
:102DE00006F5D175284601F059FA0746DA3600F0A3
:102DF000D4F8874234BF3046284601F04FFA0546E2
:102E000004F1140000F0D5FC0746206AEDB2FFF78C
:102E100065FF666A431C00970FF2A442062101A8D1
:102E200001F0D8FA052201A909F1010001F040FAE8
:102E3000D4F8208008F1DA07384601F02FFA0D287F
:102E400018D9002E0ED4384601F028FA06F10D01EB
:102E5000884202D30D22B91906E006F10A00A84201
:102E600006D156460D22394609F1150001F020FA27
:102E7000761C04E0394609F1150001F0CDFA6662CE
:102E8000A76A08F5D17800F085F83E460D2819D9D3
:102E9000002F0DD400F07EF807F10D01884203D316
:102EA0000D2208EB070105E00A37AF4206D156466E
:102EB0000D22414609F1290001F0FAF9761CA662BB
:102EC000BDE8F78F414609F1290001F0A5FAF6E7C0
:102ED000B2490A689042F3D106F2034800F05AF86A
:102EE000074606F29F3600F058F8874234BF304656
:102EF000404601F0D3F9C0B2E76A009000F04DF807
:102F0000BB460D2817D9002F0DD400F046F807F165
:102F10000D01884202D30D22F11906E000980A370C
:102F2000874205D1D3460D223146681C01F0C0F915
:102F30000BF1010B03E03146681C01F06DFAC4F897
:102F40002CB0276B00F026F83E460D2818D9002F2C
:102F50000ED400F01FF807F10D01884203D30D22B3
:102F600008EB070106E000980A37874206D156466B
:102F70000D22414609F1150001F09AF9761C04E092
:102F8000414605F1150001F047FA266398E7000075
:102F90004E6F0000404601F081B9304601F07EB925
:102FA00010B504467E4AFFF723FE04F176030FF2C4
:102FB0001C3200F09FF804F112030FF2243200F0EB
:102FC00099F804F1DA030FF22C3200F093F804F5CB
:102FD0009F730FF2303200F08DF804F5D1730FF2C9
:102FE000383200F087F804F296330FF2403200F0E6
:102FF00081F804F566730FF24C3200F07BF804F2AE
:103000009F330FF2503200F075F804F203430FF2D1
:10301000643200F06FF8237A0FF2783200F06AF829
:10302000207AC10703D50FF28032FFF7E1FD207A45
:10303000810703D50FF28032FFF7DAFD207A4107CE
:1030400003D50FF28832FFF7D3FD207A010703D5AD
:103050000FF29032FFF7CCFD207AC10603D50FF2B4
:103060009C32FFF7C5FD46A2FFF7C2FD0FF2A43266
:10307000FFF7BEFD637A0C2B34D8DFE803F0070AB4
:103080000D101316191C1F2225282B000FF2983241
:1030900022E00FF2A4321FE00FF2B4321CE00FF274
:1030A000C83219E00FF2D83216E00FF2E83213E01E
:1030B0000FF2F43210E00FF200420DE00FF208427E
:1030C0000AE00FF2244207E00FF23C4204E00FF264
:1030D0004C4201E00FF25C4202210020BDE81040AA
:1030E00001F04BB90FF2644202210020BDE810400C
:1030F00001F043B90221002001F03FB97FB5294812
:1031000000F057FBC5B2284C2B462246FFF7F2FFD2
:10311000002615E04FF48D6171431548761C084474
:1031200000F5D17200F1DA03763003920293019038
:103130000095334604F124020221002001F01DF91C
:10314000AE42E7DB7FBD000007490878002804BFD6
:1031500001F1340000F069BB00214FF4802000F041
:1031600083BA0000B80F01205C440020AC59012054
:10317000544900209440002094E40208143F0020A9
:103180000A0000007C4800200C3F0020C0300308EB
:10319000BC360308904100203C410020183F00202D
:1031A000F4400308704400205C2D030857726974D2
:1031B0006520414E435320436F6E74726F6C2050F4
:1031C0006F696E742043686172000000205375635C
:1031D0006365737366756C6C790A00004E657720C1
:1031E0004E6F746966206D6F64696669656400007E
:1031F0003D3D3E20414E43532052656D6F766564E0
:10320000204E6F7469660A00496E636F6D696E6760
:103210002043616C6C000000416374697665204353
:10322000616C6C00556E6B6E6F776E204170700034
:10323000556E6B6E6F776E20554944203A20256499
:103240000A000000414E435320726574726965762E
:1032500065206E6F7469662064617461202D2D3E57
:1032600020000000414E43532072657472696576F8
:103270006520617070206E616D65202D2D3E2000EF
:10328000414E435320706572666F726D20616374A6
:10329000696F6E202D2D3E200000000030302F3051
:1032A000300000004E6F7469660000004E6F2041D0
:1032B0006374696F6E000000546F20446F0000005B
:1032C000253032642F2530326400000020202D206C
:1032D000417070204E616D65203A2025730A000010
:1032E00020202D20417070204944203A2025730A67
:1032F0000000000020202D205469746C65203A20C5
:1033000025730A0020202D205375627469746C6542
:10331000203A2025730A000020202D204D6573736C
:10332000616765203A2025730A00000020202D20C7
:103330004D6573736167652053697A65203A20256E
:10334000730A000020202D2044617465203A202556
:10335000730A000020202D20506F73697469766510
:1033600020416374696F6E204C6162656C203A2065
:1033700025730A0020202D204E65676174697665EB
:1033800020416374696F6E204C6162656C203A2045
:1033900025730A0020202D20466C6167203A2030DA
:1033A000782578203A0000002053696C656E7420FF
:1033B000466C6167207C000020496D706F727461FB
:1033C0006E7420466C6167207C000000205072659E
:1033D000204578697374696E6720466C6167207C4C
:1033E0000000000020506F736974697665204163A6
:1033F00074696F6E20466C6167207C00204E6567A3
:10340000617469766520416374696F6E20466C61F2
:1034100067207C0020202D2043617465676F7279DE
:10342000204944203A2000004F74686572204361AF
:103430007465676F72790A00496E636F6D696E67B4
:103440002043616C6C2043617465676F72790A0078
:103450004D69737365642043616C6C2043617465CE
:10346000676F72790A000000566F696365206D61AD
:10347000696C2043617465676F72790A000000000F
:10348000536F6369616C2043617465676F72790A79
:10349000000000005363686564756C6520436174C7
:1034A00065676F72790A0000456D61696C20436140
:1034B0007465676F72790A004E6577732043617493
:1034C00065676F72790A00004865616C7468204115
:1034D0006E64204669746E6573732043617465671A
:1034E0006F72790A00000000427573696E6573732C
:1034F00020416E642046696E616E6365204361748D
:1035000065676F72790A00004C6F636174696F6E52
:103510002043617465676F72790A0000456E7465B7
:10352000727461696E6D656E742043617465676F56
:1035300072790A004163746976652043616C6C207E
:1035400043617465676F72790A000000556E6B6E97
:103550006F776E2043617465676F7279203A20251A
:10356000640A00002DE9F843604CA569604E4FF0F5
:10357000FF372840A0612169E2696069236A4FF042
:1035800001083CE0491C54F831301A42FAD054F892
:10359000312004EBC109D9F8041010400CEA0000F6
:1035A000014208BFC9F80470D9F80410084000F0BF
:1035B000A1F8D9F8042008FA00F18A43C9F80420D8
:1035C0006062EFF3108172B608FA00F22069D2430C
:1035D00010402061022004EBC00353F808CC401EC9
:1035E00002EA0C0C43F808CCF5D181F31088606A2C
:1035F00056F8201088472169E2696069236AD4F887
:1036000018C0014011EA0C0F05D01A4203D1002165
:1036100000EA0C02B7E76762206A024213D101F0A8
:103620002AF8EFF3108672B62269E1696069A3692E
:1036300002401A4202BF206A014201F01BF886F3E1
:10364000108801F019F8A561BDE8F18338B514467A
:1036500000F006F8264941F8204085F3108831BD76
:10366000EFF3108572B645E030B5EFF3108272B615
:103670001E4B1C6904431C6153F83150284343F826
:10368000310082F3108830BD506181F3108870479B
:10369000EFF3108172B6154AD3691843D061F4E78D
:1036A0002DE9F041114C666A0546374616F1010FC7
:1036B0000EBF0026012000FA06F6D4F8208025620D
:1036C00003E02946304601F017F8E0692842F8D0B7
:1036D0006762EFF3108072B6E16921EA0505E561E2
:1036E00080F31088C4F82080BDE8F081684600208F
:1036F000C062012002460020110C090404BF102002
:10370000120412F07F4F04BF0830120212F0704F03
:1037100004BF001D120100BF03A3120F995CC0F18A
:103720001F00401AC0B270470403020201010101E8
:103730000000000000000000002200F0E9BF00606F
:1037400040607047EFF3108172B6026882420CBF8E
:10375000012000201CE0EFF3108272B603680B60BA
:1037600048600160086841603DE0EFF3108272B686
:10377000086043684B6041604868016033E0EFF3E4
:10378000108172B642680368136002684368536030
:1037900081F31088704710B5EFF3108472B6026899
:1037A0000A600168FFE70846FFF7E9FF84F3108825
:1037B00010BD014610B50020EFF3108272B60B6801
:1037C00002E01C68401C23468B42FAD182F3108829
:1037D00010BDEFF3108272B6036803E0EFF31082BE
:1037E00072B643680B6082F31088704700208D49E1
:1037F00008608D4A13681847F8B5040015461E4640
:1038000011D030000FD0069F00202060084600F045
:103810005CF86060002020726072A072E660276130
:10382000E5726061F2BD0120F2BD2DE9F041044670
:10383000002594B300F0B8F8002804BF607A00288F
:103840002BD1EFF3108672B6774F386AD4F8048024
:103850008047404538BF4046206001202572607295
:10386000A572DFF8C081D8F8000018B93869804720
:1038700020460AE0B8698047216840182060D8F8DF
:10388000002013689842204602D200F0C1F801E0FF
:1038900000F0ABF886F3108800E001252846BDE86B
:1038A000F08110B50400084601D1012010BD00F0E0
:1038B0000CF86060204600F077F810B1204600F068
:1038C00007F82046BDE81040AFE757494A6A10475D
:1038D000F8B5002420B3EFF3108572B6514E32686C
:1038E0000127877213461146BAB1447282420BD146
:1038F0005069147218B1306000F061F80DE04A4868
:10390000C1688847346008E0814204D00B464969A9
:103910000029F9D101E04869586185F3108800E079
:1039200001242046F2BD2DE9F8430024A046A1461B
:10393000EFF3108572B63C4E7069804731690746D7
:10394000384E8847C71B306828B30268974238BF93
:10395000D21B12D30022B8F1000F0ED1336859697F
:1039600031600272C17A4272012902BF817A002954
:103970000446D0F81090D0F80C800260406900280E
:10398000E3D114B12046FFF750FF306818B1017A37
:1039900009B900F014F885F31088B8F1000F1CBFC6
:1039A0004846C047BDE8F1831E49096800E04969FF
:1039B00019B18142FBD10120704700207047F8B552
:1039C0000446194D286A804701212172AF690646D5
:1039D000B84721683018814202D2B84736182660AD
:1039E0002068A968BDE8F440084710B50D490A6889
:1039F000536901E01A465B69516931B11C6801687D
:103A00008C42F7D35061436110BD5061416110BDDC
:103A1000044A116809B100230B7241611060CEE7BE
:103A200000000000C86E0120343F030862B38B071A
:103A300008D0521E11F8013B00F8013B00F0248031
:103A40008B07F6D1830740F0208000BF103A07D3E0
:103A500030B4B1E83810103AA0E83810F9D230BCD0
:103A6000530724BFB1E80810A0E8081044BF51F87C
:103A7000043B40F8043BD20724BF31F8022B20F866
:103A8000022B44BF0B7803707047121F17D35B00E3
:103A900009D151F8043B20F8023B1B0C121F20F8FF
:103AA000023BF6D20BE051F8043B00F8013B1B0A45
:103AB00020F8023B1B0C121F00F8013BF3D238BF69
:103AC000121D521E24BF11F8013B00F8013BF8D82B
:103AD0007047FA00960064004B0032001E0014008C
:103AE00070B5DFF8944504F516652846FFF727FE04
:103AF00004F66810FFF723FE0026F0207043002232
:103B0000761C21180A7481F8A4202846FFF72DFEA0
:103B10000A2EF2DB70BD7CB5DFF85C55044605F576
:103B200016663046FFF70EFE60B969463046FFF76D
:103B300032FE00980472009905F66810FFF715FE32
:103B4000009876BD002076BD0CB438B50446237CC1
:103B500024250A466B431421234403F1140000F08A
:103B600039FC207C04A91022454360192830FFF756
:103B70006DFF207C401C207431BC5DF80CFBA8302C
:103B80004260016070470000032900D970470CB4FF
:103B900080B5DFE801F002040806C03004E0B03070
:103BA00002E0E03000E0D03002A91022FFF74EFF23
:103BB00001BC5DF80CFBDFF8C40400687047DFF857
:103BC000BC14086078E0DFF8B4140868C068002806
:103BD0001CBF086000F070B8704770B5DFF89C2417
:103BE0001368187A03F1A40410B1012817D070BD2E
:103BF000217824256943194401F12806317849B90F
:103C0000B06838B1C360217803F130004D434359A7
:103C1000136012E0012913D1706888B104E0217BA0
:103C2000012904D1206910B1BDE87040004739B9BD
:103C3000606928B1C36060691060BDE870403BE016
:103C400070BDDFF838040068017A11B101290FD086
:103C5000704700F1A401087808B9032006E0401E6F
:103C6000421000EB92739B10A0EB8300087023E0DE
:103C7000A430006B002818BF0047704710B5DFF86C
:103C8000FC432068017A11B101290DD010BD90F8D4
:103C9000A410491C4A1001EB92739B10A1EB830105
:103CA00080F8A41000F008F82068D0F8E40010B103
:103CB000BDE81040004710BD00214FF40050FFF751
:103CC000D3BC0000F8B500F057FD0021002000F043
:103CD00011FFDFF8A8532868017A11B101292ED00D
:103CE000C3E10027A7A6286839018C1C90F8A420FE
:103CF000974211D1FF20009010238022002001F074
:103D000073F9002001F041F8FF2001F044F802238C
:103D1000324600F0E2F905E0FF2001F036F800201D
:103D200001F039F824212868794301237F1C0144DC
:103D300001F1140200F0D1F9042FD4DB95E1FF204A
:103D400001F023F8002001F026F829680024A831AA
:103D5000486800B10124096808780419E4B2012C0C
:103D600003D14A1C01231A2160E0022C19D14A1CFC
:103D70000123122100F0B2F92868A830416829B95E
:103D800000680123222100F115024FE0087818B9DC
:103D900000F095F9202156E0012862D10A7A22210B
:103DA0005CE0032C23D14A1C01230A2100F096F980
:103DB00000F08BF91A2101F0CCF82868A83042688D
:103DC0002AB9006801232A2100F129022EE0107887
:103DD00040B9507A917A52680B46490800920246DF
:103DE000203130E001283CD1127A2A2136E0042C1F
:103DF00037D14A1C0123022100F070F900F065F967
:103E0000122101F0A6F828680123D0F8A81000209C
:103E100001F12902222101F09CF82868A8304268AB
:103E20003AB900680123322100F13D0200F056F951
:103E300017E0107870B9507A917A52680B462031A9
:103E400000920246C9B24008C0F14000C0B200F082
:103E500048F906E0012804D1127A32213D2000F011
:103E6000DCFF286800F1B0010878012802D1486819
:103E700018B91CE0D8B98868C8B1CA681078012898
:103E800005D1127A1A21792000F0C7FF0FE070B92E
:103E9000507A917A526800920B4602464908C1F165
:103EA0002001C0F18000C9B2C0B200F01AF9286840
:103EB00000F1D0010878012802D1486818B916E04D
:103EC000A8B9886898B1C9680878012805D10A7A24
:103ED00000213D2000F0A1FF09E040B900F0EFF81B
:103EE0004008C0F140000021C0B200F0FAF8286894
:103EF00000F1E0010878012802D1486818B918E0FB
:103F0000B8B98868A8B1CA681078012805D1127AB2
:103F100034213D2000F081FF0BE050B95068917AC8
:103F20000090527A0B46C1F14001C9B2382000F02E
:103F3000D8F8296801F1C0021078012824D150680E
:103F400038BBC86838B14E490091082308221C21AB
:103F5000002000F0C6F84B4928680A68904200F03B
:103F60008480494D2A780A24642A28D131220021EC
:103F7000632000F052FF302200216A2000F04DFF44
:103F8000302228E03E0000000028DAD190680028A6
:103F9000D7D0D2681078012805D1127A1A210020D2
:103FA00000F03BFFD7E70028D5D15068917A0B4647
:103FB00049080090C1F12001527AC9B2C8E70A2A23
:103FC00007DB92FBF4F200216A2000F074F800F0A5
:103FD0006BF83032D2B20021712000F01EFF252292
:103FE00000217A2000F019FF284D287818B900F038
:103FF00056F830220FE00A2808DB90FBF4F200218B
:10400000032000F058F800F04FF802E000F047F805
:104010002A783032D2B200210A2000F0FEFE3A2285
:104020000021112000F0F9FE194D287818B900F090
:1040300031F8302215E00A280EDB90FBF4F2002163
:10404000182000F038F828780A2190FBF1F104FBE1
:1040500011043034E2B204E000F01CF82A78303267
:10406000D2B200211F2000F0D8FE002000F0B1FCE9
:10407000BDE8F14000F0E7BB38330120B06E01200D
:10408000A0450308F83E0020026E0120036E0120C7
:10409000046E012030220021182000F0BEBE302224
:1040A0000021032000F0B9BE2A780A2092FBF0F02C
:1040B00004FB102270473032D2B200F0AEBE4A6824
:1040C000487A00928B7A0246704728680123D0F81C
:1040D000A810002001F1150270472146002000F0D1
:1040E00038BF2DE9F84F8346904608EB0B020A9C37
:1040F000802A08DC8DF800309DF800008DF8011052
:104100004118412902DB4FF0FF3027E0002500E095
:104110006D1C9DF8000085421FDA9DF801A04FF04C
:104120000009AA4402E0641C09F10109B9EBD80FA7
:10413000EEDA8027002621780BEBC90030180F42F9
:104140000CBF0022FF221FFA8AF180B200F040FE6D
:104150007F10761C082EEEDBE5E70020BDE8F28F2D
:10416000F0B50024002302E00E553B462C46934256
:1041700080F28C80C65C5F1C651CFFB2E4B25FEA13
:10418000066CF1D506F0F00EBEF1F00F05D13F261A
:104190000E552C461B1DDBB2E9E706F0E00EBEF122
:1041A000E00F04D13F260E552C46DB1CF3E706F04A
:1041B000C00CBCF1C00F61D1C7187F7807F03F0772
:1041C00047EA8616F6B2C03E052E50D9F61F4CD0EF
:1041D000761E032E47D9361F032E42D9361F3ED0F6
:1041E000761E3AD0761E042E35D9F61F032E30D90E
:1041F000361F2CD0B61E28D0761E052E23D9F61FCA
:104200001FD0761E032E1AD9361F032E15D9361F3E
:104210000FD0761E0FD0761E042E0AD9F61F032E5D
:1042200005D9361F01D0B61E23D1792622E0752686
:1042300020E06F261EE06E261CE069261AE0652647
:1042400018E0632616E0612614E0422612E05926A3
:1042500010E055260EE04F260CE04E260AE04426DC
:1042600008E0492606E0452604E0432602E0412610
:1042700000E03F269B1C0E55DBB277E7C65C06F0DC
:10428000C006802EFAD13F230B556EE7F0BD46F2F3
:10429000F870C2F2010090F83800704700F1010395
:1042A00010F8011B11B110F8011BFBE7C01A704791
:1042B00001B58B071AD1830724D1121F21D351F8DE
:1042C000043BA3F1013C2CEA030C1CF0803C04BF2E
:1042D00040F8043BF1E79CFA8CFCBCFA8CF1C1F18C
:1042E00018018B40CB4040F8043B13E0042A09D36B
:1042F00011F8013B521E00F8013B5BB18B07F7D16F
:10430000D9E7121D5AB111F8013B521E00F8013BCA
:1043100003B1F8D111001CBF002200F0F9F901BD72
:1043200010F8012B11F8013B0AB19A42F8D0D01ACB
:10433000704746F2F870C2F2010090F839007047F9
:1043400030B5214C656AC1B0854214D311F1010F1B
:104350000FBF4FF0FF300125481E05FA00F0246A18
:10436000204208D04FF48071684600F05DFE81B2B3
:10437000684600F09AFE41B030BD08B400B501AB0C
:10438000FFF7DEFF5DF808FB70B504460D4600F050
:1043900069FE00BF0DA0D0E900120B4E7462C6E9A1
:1043A0000012284600F003F80020B06270BD10F142
:1043B000010F0FBF4FF0FF300121401E01FA00F046
:1043C000014A106270470000986A01202525255B8C
:1043D0005D5C5C2508B438B585B009AC0025049453
:1043E000039500290EBF01950190491E0291009589
:1043F00004AB01A9074878441A3000F035FF019951
:1044000001B10D70002858BF039806B030BC5DF8AC
:1044100008FB00BF87DFFFFF5FEA000C11F8012BEC
:1044200000F8012B12B111F8012BF9E76046704733
:104430002DE9FE4316460D46994602AA01AB01F04E
:10444000AAFE0746B0B9DDE901842A464B4600962C
:104450004146204601F0A2FE18B1074601F0C6FE13
:1044600008E00648E061606840F40050606001F0D8
:10447000C0FE00273846BDE8FE8300BF1146030892
:10448000002201F0B9BE04E010F8013B6BB1491CF9
:10449000521E52B10B7890F800C09C45F4D002D265
:1044A0004FF0FF30704701207047002070476000D8
:1044B0000600F000F000600080B500210091694620
:1044C000002001F0B7FE002812BF0C200098807B6E
:1044D00001F0E2FF01BD10B5002001F0FDFF6E48C4
:1044E00001686E4C41F400010160FFF77FF96C48F0
:1044F00002F000F8D4E90001FFF746FF02F018F8D7
:1045000002F0D3F804F1080002F022FB654A002112
:104510004020FFF79BF8644801884FF6FF739942EB
:1045200001D0080001D1614803E0C908604800EBF0
:10453000413002F0D3FC5F4A00218020FFF786F86B
:10454000002003F0E5FA0021002000F0BDF988B951
:1045500000F02AFA70B9584800F0E8FB002000F09B
:1045600050FC564800F01EFC002000F014FCFF2018
:1045700000F00BFC524A00214FF40050FFF766F8A0
:104580001F220121002003F0ECFA4120FDF751FF2A
:1045900000220F214120FDF71AFF4120FDF73EFFC9
:1045A00048480268484993680B4043F01003936001
:1045B000026893685B07FCD4546824F004045460D8
:1045C00000688268114041F0040181603F4A002187
:1045D0002020FFF73BF803F08DFB03F0D7FC3C4AAB
:1045E00000210120FFF732F80121012003F02EFD08
:1045F0000021022003F02AFD0021002003F026FD07
:1046000003F06EFD0121022003F020FD0FF21502E0
:1046100000214FF40070FFF719F8002001F05DFF52
:10462000002010BD2B48007801280FD0102808BFAB
:10463000FFF707BB082808BFFFF7CFBA022808BF5B
:10464000FFF71CBB042808BFFFF7BDBA704721481D
:10465000017000214FF40070FFF706B8890004F0E4
:104660005BBB800004F0FCBA04F03FBB4FF0FF30AE
:10467000FEF778BF70477047704700212020FEF793
:10468000F3BF00210120FEF7EFBF13490160134A79
:10469000134B426083607047F40C02460C480020C4
:1046A000400000309B6E0008A007F90B00C00F0807
:1046B00000C0FF0797AC0008083F0308F44800203B
:1046C000C53C000820430020E8FFFF7F297E00084A
:1046D000FF7F0008E76D01205D4600086346000883
:1046E0006946000800214020FEF7BEBF002180205F
:1046F000FEF7BABF70477047C043FEF733BF3000C4
:104700000600A000A000300062F30F2262F31F42F7
:10471000401810F0030308D0C91A1FD3DB0748BFA5
:1047200000F8012D28BF20F8022D130030B41446E4
:104730001546103928BF20E93C00FAD8490728BFA0
:1047400020E90C0048BF40F8042D890028BF20F85C
:10475000022D48BF00F8012D30BC7047C91818BFA2
:1047600000F8012DCB0728BF00F8012D7047D004B9
:104770008901D00478018901DFF81C0170B5DFF8E8
:104780001C51286086B02846002404F0D4FC002880
:1047900051D13E4EF068022240F00100F060F06816
:1047A00000F04CF8F16841F00201F160F06801217D
:1047B00000F00200059005980091019202920621F6
:1047C0000122049103926946314804F039FD022127
:1047D000019102914FF48070012100900391062213
:1047E000049269462E4804F02BFDB06A40F0200088
:1047F000B062B06A00F0200005900598316841F081
:1048000020013160326822F020023260FDF7DCFBCB
:104810000022002124A3234E00E04008B04204D32C
:1048200053F82210521C082AF7D3284604F0C0FF80
:1048300008B16FF00704204606B070BD00F001001B
:104840000590059870470121114810B504F0ADFDA1
:104850004FF48071124804F0A8FD0E48016800244E
:1048600021F0200101600D4804F02FFB08B96FF022
:104870000704204610BD0A46014680B502230748BA
:1048800004F038FB002002BDFDF736BD800C024667
:1048900000000242A80C024600200046A861012048
:1048A0000004024221BCBE00000000000000001015
:1048B0000000002000000030000000400000005018
:1048C000000000600000007078B585B00C4600253F
:1048D00010B16FF0010530E0DFF834641CB98020BE
:1048E0003060402102E040203060802171600FF292
:1048F000FD3101910FF231320FF2353003920FF298
:10490000692100900291DFF80C240492694606F1B7
:10491000140004F077FF70B906F11400F060002273
:1049200000F00EF8DFF8F0333361F0681B682246C0
:104930000021984708B16FF00605284606B070BD03
:104940000821DFF8D80304F096BD10B16FF0010024
:1049500070476AE110B5002410B16FF001040CE05B
:1049600000F050F8126E32B1C0689047002804D5AC
:104970006FF0040401E000680860204610BD10B527
:10498000002410B16FF001040CE000F03BF8526E0F
:1049900032B1C0689047002804D56FF0040401E0EC
:1049A00040680860204610BD10B5002410B16FF0BB
:1049B00001040CE000F022F8C96831B1C0688847F2
:1049C000002804D56FF0040401E06FF00A042046CB
:1049D00010BD10B5002410B16FF001040CE000F020
:1049E0000DF8496A31B1C0688847002804D56FF0D6
:1049F000040401E06FF00A04204610BDDFF8100344
:104A000001697047DFF808030269704738B500256F
:104A100010B16FF001050CE000F026F8246C34B101
:104A2000C068A047002804D56FF0040501E06FF0CE
:104A30000A05284632BDFEB5002510B16FF001050C
:104A400010E000F011F8A46C54B1099E089FC068F2
:104A500001960097A047002804D56FF0040501E0F7
:104A60006FF00A052846FEBDA948046970477CB569
:104A7000002510B16FF001050EE0FFF7F5FFE46CC3
:104A800044B1069EC0680096A047002804D56FF088
:104A9000040501E06FF00A05284676BD7CB50025C7
:104AA00010B16FF001050EE0FFF7DEFF246D44B199
:104AB000069EC0680096A047002804D56FF0040544
:104AC00001E06FF00A05284676BD7CB5002410B1E0
:104AD0006FF001040CE007988D4D069E0190E86888
:104AE0002D6900966E6DB047002848BF6FF0040432
:104AF000204676BD7CB5002410B16FF001040EE0B5
:104B0000834D68682B6801910090E8682D69002248
:104B100000216E6DB047002848BF6FF004042046A6
:104B200076BD70B5002410B16FF0010408E0784D37
:104B3000E8682D69AE6DB047002848BF6FF00404E7
:104B4000204670BD70B5002410B16FF0010408E07C
:104B50006F4DE8682D69EE6DB047002848BF6FF0D3
:104B60000404204670BD000010B50846114600241C
:104B70000A0004D000F005F808B16FF007042046E1
:104B800010BD2DE9F8430D46002604466FF00707D7
:104B9000DFF88881DFF88891012D32460ED100F0D0
:104BA0003AF8002200F03CF801212046FFF763FEAE
:104BB00000B13E4601220821404627E000F030F8CF
:104BC000012200F028F8012005F064F9B5F5806FA6
:104BD000C8BF6FF0010612DC0BDB4FF400712046FA
:104BE000FFF749FE00B13E464FF4007104F5007036
:104BF00001E029462046FFF73EFE00B13E46012275
:104C000000F00EF800224FF40071484604F033FC27
:104C10003046BDE8F2834FF40071484604F02BBCE7
:104C20000821404604F027BC00BF6FF00A0070471F
:104C300070B586B03B4D28680024082240F0800003
:104C4000286029680123354E01F0800105910599FE
:104C500000920193029403946946304604F0F0FAFE
:104C600000220821304604F006FC28684FF4007248
:104C7000012340F0020028602968294E304601F0E7
:104C8000020100F025F800224FF40071304604F0D4
:104C9000F2FB28684FF48052012340F001002860A5
:104CA0002968214D284601F0010100F011F8FFF7B5
:104CB00063FD08B16FF00704002200F012F8012034
:104CC00005F0E8F8012200F00CF8204606B070BDAF
:104CD000059105990092019302940394694604F0AA
:104CE000AFBA4FF48051284604F0C5BB80B5082107
:104CF0000A4804F05AFB4FF40071094804F055FBD0
:104D00004FF48051084804F050FB002002BD000021
:104D1000386801208948000898430020001C02429E
:104D2000000402428C0C02460000024238B50168C1
:104D3000DFF8EC42DFF8EC52216042686260816883
:104D4000A160C268E26001692161426962618169B2
:104D5000A161C269E261016A2162436A0021636262
:104D6000806A0023A062E9602B6105F11401002034
:104D70009047226A05F118010020904705F11C01B7
:104D8000A26A0020BDE838401047DFF89812CA68D0
:104D9000520188507047DFF88C12CA6801EB42114B
:104DA00048607047DFF87C12CA6801EB42118860E6
:104DB00070473EB5069C009313460A46019401468F
:104DC000DFF860522869DFF858426568A84737BDA8
:104DD000134670B5DFF848229469DFF84852EA6953
:104DE000022A09D15E09C3F3C40206F4FC661B0A59
:104DF000324303F4784313430A4601462869A04727
:104E000070BD80B5DFF81C1200908B694A690021E3
:104E1000FFE7002000F0E8F801BD2DE9F04F8046E3
:104E2000DFF80062F068A9B0203A06EB40130DF1FC
:104E300044090DF1140A98688488E71DBD1007EB3A
:104E40005577C3880068FF105A43002503937A43BF
:104E50000F46E11D02440492CA08D200121BC90881
:104E60000292019109E001230093234611AA3946D9
:104E70004046FFF79EFF7F1C6D1C0398854265D25C
:104E800001980499019A68430144012A06D0022A34
:104E900006D10B78487840EA032008E0087806E05D
:104EA00048780A788978000240EA02400843F168AD
:104EB000029A49017318D3F81CC0A218521EBCF103
:104EC000020F2DD1002324E006F1040C5CF8011040
:104ED0004FEA511B0BF4FC6BC1F3C40C4BEA0C0CF6
:104EE00011E0F168A2EB030C20FA0CFE49015FEA25
:104EF000CE7BE9D571584FEA511E0EF4FC6EC1F31A
:104F0000C40C4EEA0C0CC90C4CEAC1212AF813104F
:104F10005B1CA342E5D301200090234605AAA6E727
:104F20004FF0000CA4459ED2A2EB0C0E20FA0EFB13
:104F30005FEACB7E5ABF06F1040E5EF801B0D3F8EB
:104F400000B049F82CB00CF1010CEBE729B0BDE83A
:104F5000F08F2DE9F04104464FF00008002015467F
:104F600000E0401C15F8016B002EFAD1DFF8B47098
:104F7000FE6807F108057601AD597E69012BAD8801
:104F8000B6FBF5F605D0022B02BF301A6843041BAE
:104F900003E0301A684304EB500414B1B4F5004F39
:104FA00000D301240D4616460EE016F8012B2946C3
:104FB0002046FFF732FFF86807F1080308F10108FF
:104FC000400119588A881419307858B1F86807F1E7
:104FD0000801400109588888796900FB181189B2D5
:104FE0008142E2D2BDE8F081FEB50E4EF7690C4C6D
:104FF000089D2469022F0BD14FEA551CC5F3C40745
:105000000CF4FC6C2D0A4CEA070705F478453D4387
:10501000009313460A46014630690195A047F7BD43
:10502000C46A0120B867012008B584B00023039347
:1050300000290EBF01930190491E0291009301A91E
:1050400004AB07487844183000F00EF9019909B113
:1050500000220A70002858BF039805B000BD00BFA9
:105060003BD3FFFF10B5DFF8F8411822002120469E
:1050700004F02FFF4FF48052002104F1180004F0D7
:1050800028FFDFF8E0110A680FF2D900BDE81040F0
:105090001047DFF8D0118A681047BDF80020521C75
:1050A000C2F30B02ADF80020704738B504460D4638
:1050B00000F0C4F86946284600F094F810F1010F9A
:1050C00011D00020664907E0BDF80030225C401C8A
:1050D0000B441A76FFF7E1FFA842F5D300F0B6F8CB
:1050E00000F006F832BD00F0B1F86FF0020032BDFA
:1050F00070B50026EFF3108472B6594DE88A58BB9C
:1051000000F09CF8698A288A884223D0AA78012A6C
:1051100009D12B882E800222181A86B20EB90022DD
:105120002A82AA70A882A8782A8A28B98A4234BF1B
:10513000891AC2F58051A982A81800F1180684F3D3
:105140001088FFF7D7FA474AA98AD36830469847AC
:10515000064603E000F07AF884F31088304670BD0C
:105160000000000070B5EFF3108172B63C4A9078F1
:10517000022802D10023937004E0138A908AC31896
:10518000C3F30B031382538A108A984223D0D48A24
:10519000012C20D19478012C0AD115880026168084
:1051A000281A022486B20EB90024148294709082C8
:1051B0009078148A28B99C4234BF1B1BC4F58053D5
:1051C00093821019183081F31088918A254AD36888
:1051D000BDE87040184781F31088FFF78CFABDE8EE
:1051E000704033E0F0B54FF0FF32EFF3108372B64A
:1051F0001B4C258A668AAE4201D0B5420ED2C6F556
:105200008056B7B2B8420AD3A84213D2668A0125A3
:10521000A57026800025268A658200E0AE1BB6B206
:10522000B04207D2628A0A80618A00224018C0F325
:105230000B00608283F310881046F0BDEFF31080FE
:1052400072B60749CA8A521CCA8206E0EFF3108080
:1052500072B60349CA8A531ECB8280F31088704706
:1052600054D60020EC4403082DE9F14FB0B092462B
:1052700004910DF142013A9A2B9199464A7000200F
:105280000AE01AF8011B0498309A9047002804900D
:1052900000F06A860D98401C0D909AF8000050B1FD
:1052A0002528EED1002100220791089209910A9247
:1052B0000B910C9204E00D9800F058BE41F00101F2
:1052C0001AF8010F2028F9D023280CD02B2804D05D
:1052D0002D2805D0302809D00BE041F00201EFE77E
:1052E00041F00401ECE741F00801E9E741F0100169
:1052F000E6E72A280FD1D9F8002052F8040BC9F8A4
:10530000002000280F9003D540420F9041F0040187
:105310000AF1010A14E00F92DFF8583C0AE00F98F6
:10532000984205DA00EB800402EB4402303A0F9217
:105330000AF1010A9AF80020A2F130000A28EED3FF
:105340009AF800002E2803D04FF0FF320E9229E089
:105350001AF8010F2A2809D1D9F8000050F8042BB7
:10536000C9F800000E920AF1010A1BE02D280CBFBB
:105370000AF1010A002000220E92DFF8F84B0BE040
:1053800040B90E9AA24205DA02EB820503EB45030F
:10539000303B0E930AF1010A9AF80030A3F1300273
:1053A0000A2AEDD3ADF840100FF6CC309AF8001071
:1053B00004F096FD08B11AF8010B8DF842009DF833
:1053C0004200682805D19AF8000068280CD16221B3
:1053D00006E06C2804BF9AF800006C2804D1712103
:1053E0008DF842100AF1010A12A806901AF801BBC2
:1053F000BBF125012CD01C3900F0D681091F0229F0
:1054000040F2D281133900F0E184093900F0CC81F7
:10541000891E00F07685491E00F02385491E022969
:1054200040F2C281091F00F01C85491F00F0318144
:10543000491E00F0CB84491E00F0D880C91E0DD053
:10544000891E00F0C384C91E00F0C08400F064BD52
:1054500025238DF84830012100F069BDD9F80000FE
:1054600050F8044BC9F80000002C059440F0AB80C4
:105470002B994878002800F0A1804FF0FF340FF6F8
:10548000003004F039FD201A40F06E8500F050BD68
:1054900001236A4602A9304600F042FE002840F08F
:1054A00063856D1EF4D13096079D12AF75B1309EA5
:1054B00017F8012B02A9304600F022FE002801D483
:1054C0006D1EF5D10028309640F04E850A9D3020A3
:1054D000002D8DF800000CDD309E01236A4602A9E4
:1054E000304600F01DFE002840F03E856D1EF4D1D0
:1054F0003096059F089D75B1309E17F8012B02A9C3
:10550000304600F0FDFD002801D46D1EF5D10028C5
:10551000309640F029850B9D3020002D8DF800003D
:105520000CDD309E01236A4602A9304600F0F8FDEA
:10553000002840F019856D1EF4D130960598089921
:10554000099D471875B1309E17F8012B02A9304606
:1055500000F0D6FD002801D46D1EF5D1002830964C
:1055600040F002850C9D3020002D8DF800000CDDF0
:10557000309E01236A4602A9304600F0D1FD002882
:1055800040F0F2846D1EF4D130969DF84000410742
:105590007FF583AE2020002C8DF800007FF77DAED4
:1055A000309D01236A4602A9284600F0B9FD002873
:1055B00040F0DA84641EF4D130956EE60FF6C03008
:1055C000059000F0B5BC0E9D002D04D52046FEF7D9
:1055D00065FE044607E02A46204604F0ADFC00289C
:1055E00014BF041B2C46089400F0A2BCD9F800108C
:1055F00051F8040BC9F8001020F00004002121F03C
:10560000FF3512ABCDE902450593DDE9022306998A
:105610003C2413B90AB90E98A0B102F00F05641E1C
:1056200030353A2D08DA12090D5542EA03721B098A
:1056300008BF002A02D105E02735F4E705980D19C7
:10564000A842EAD308190590C4F13C020E980892CA
:1056500082420ADABDF84010821A4FF6EF7001401C
:105660000A92ADF8401000F063BC002840F160845D
:105670009DF8400000F01400102840F059840F9B62
:1056800007990A985B1A1B1A9A1A002A40F3508449
:105690009AE32B99487820B14FF0FF340FF6B020F1
:1056A000EFE69DF84200622860D0682817D06A288B
:1056B0003FD06C2806D0712847D074282CD07A2887
:1056C0001DD062E0D9F8001051F8040BC9F80010A1
:1056D000002866D14FF0FF340FF68C20D1E6D9F8C0
:1056E000001051F8040BC9F8001020B94FF0FF3436
:1056F0000FF67420C5E60D99018000F019BCD9F8A9
:10570000001051F8040BC9F80010002849D14FF0DF
:10571000FF340FF65420B4E6D9F8001051F8040B0A
:10572000C9F8001000283CD14FF0FF340FF63820A4
:10573000A7E6D9F8001051F8040BC9F8001080B999
:105740004FF0FF340FF620209BE6D9F8001051F8F7
:10575000040BC9F8001020B94FF0FF340FF60820F1
:105760008FE60D9AD317C0E90023E1E3D9F80010C2
:1057700051F8040BC9F8001020B94FF0FF340FF6B0
:10578000E8107EE60D990170D2E3D9F8001051F8C7
:10579000040BC9F8001020B94FF0FF340FF6C81001
:1057A0006FE60D990160C3E3D9F80020D21D22F005
:1057B0000702C9F80020D2E900010832C9F8002028
:1057C000CDE90201C80F02D007982D210AE0BDF8EB
:1057D0004000810702D507982B2103E0C00705D5BB
:1057E0000798202112AA1154401C079012A807996B
:1057F000DDE9024543184BF020006128059321AEF6
:105800000BD00E98002802D506200E9005E001BFAF
:105810004BF02000672801210E91DDE902014800CC
:105820004015401C0A460DD109030BD0ABF16107AE
:1058300003201A2F089002D20FF648110DE00FF640
:1058400048110AE070B912030CD1ABF161070320D3
:105850001A2F08901CD30FF6381103221846FEF7B2
:10586000E5F865E3DDE902016A4604F091FBCDE964
:1058700002014BF02000612811D105983021017000
:10588000821C0592BBF1610F0CBF7821582102E008
:105890000FF6F801E1E741700798801C0790DDE9F9
:1058A000020120F0000231F0004308BF002A02D1BB
:1058B0000025002445E14BF02008B8F1610F40F0CD
:1058C00095800E98002847BF21210191401C01902E
:1058D000019F7F1C2046294600220023DDE9024566
:1058E00004F08EFB38BF85F0004500998DF88420C8
:1058F000091F002F00910DF1850034DD064620467A
:1059000029460022002304F095FB2BD21C2204F030
:10591000ABFB04460D4604F045FCFF1F002F8046FC
:1059200009DD04F05BFC02460B462046294604F0E4
:1059300025FD04460D46F01D0721B8F1000F0CDDD2
:10594000491E5EBF08F00F0200F8012D4FEA28182B
:10595000F3D502E0002200F8012D491EFAD5C61D3C
:10596000002FCCDC30460DF18501401A01990DF174
:10597000850605468842C8BF0D46002D2FD48542B6
:1059800006DA0DF18500415D0829A8BF0F2000DA75
:105990000020294621AA0A4400E06D1E12F80139B0
:1059A000491E8342F9D00F2804D10DF18500425CD5
:1059B000521C4254002904D50098001D21AE6D1CD4
:1059C0000090681E0BD431180A783032D3B23A2BCB
:1059D000A4BF5A443A3A401E01F80129F4D50E9862
:1059E000002840F1AD80691E0E91A9E00099DFF812
:1059F000002747F29750414391FBF2F2009225F0C5
:105A00000045C2F10702002A04DD2046294600F0C5
:105A10004BFB0BE052420020DFF8D81600F044FBAD
:105A200002460B462046294604F01AFD04460D4660
:105A3000B8F1660F06BF009F0A3706270E983F1879
:105A4000142FC8BF142730208DF884000DF1850075
:105A500000E03046002F35DD06462046294604F09A
:105A600023FE01460A4606F1080304200A26B2FB7B
:105A7000F6F606EB860EA2EB4E02303203F8012C4E
:105A80000A22B6FBF2F202EB820EA6EB4E0630368D
:105A9000401E03F8026DE9D1083F002F03F108060C
:105AA000D7DD084604F012FE02460B462046294682
:105AB00004F064FC0022DFF8403604F015FE0446D2
:105AC0000D46CAE70DF18501401A0DF1850604E087
:105AD0000099491E401E0091761C31783029F7D07C
